:1004660050617373776F72643A004F4B004E4F00C2
:10018C001204527BFF7A0479667D017F011203C948
:10019C001200038F1CE51C60F7D3940A5041C3E591
:1001AC00199404E51894005028AE1AAF1B7C007DFE
:1001BC000A1202848E1A8F1BE51C75F00A84E5F076
:1001CC00251BF51BE4351AF51A0519E519700205FE
:1001DC0018750C04AB1BAA1A7D017F0212040AE5E8
:1001EC001C640B7036E51BB4290DE51AB409087BA9
:1001FC00FF7A04797080067BFF7A0479737D0E7F19
:10020C00011203C9E4F51AF51BF518F519750C0460
:10021C00AB1BAA1A7D017F0212040AE51C640C6058
:10022C000302019CAE1AAF1BFC7D0A1202968E1AB9
:10023C008F1BE519151970021518750C04AB1BAA48
:0B024C001A7D017F0212040A02019CCF
:10043D00EF4E6010007D027CC7DCFEDDFCEF1F700F
:04044D00EF1E80EC32
:010451002288
:06047600C2A58F80D2A791
:08047C007F027EEFDEFEDFFCD3
:010484002255
:0A049100C2A6120476C2A702047C82
:1003EC00CFCDCFCECCCE1202967C007D0A120296D7
:0403FC00ED2430FFBD
:0A040000D2A6120476C2A702047C03
:10042700AE07BE0104ED148006BE0209ED243F4469
:0604370080FF1204912277
:100452007F381204917F0C1204917F061204917F5F
:0404620001020491FE
:0A049B00AC03120427AF04020400B2
:0603C9008B088A09890A75
:1003CF00120427E4FDAB08AA09A90A8D82758300E0
:0C03DF00120257FF60061204000D80E9B6
:0103EB0022EF
:0C0396007F0AEA24FFFDE434FFFC7E0037
:0803A2008E0D8F0E8C0F8D10E3
:1003AA007F017E00E4FBEBC39510E50F6480F874CF
:0E03BA008098500AAC0DAD0E1202840B80E844
:0103C8002212
:04040A008A0A8B0BC4
:10040E00120427AA0CEAD39400400D120396AC0AEC
:08041E00AD0B1203EC1A80ED96
:0104260022B3
:1002EB00120427C3EA64809480400B7F2B12040016
:1002FB008A168B17800E7F2D120400C3E49BF51713
:10030B00E49AF516AA15EAD39400400D120396ACA5
:09031B0016AD171203EC1A80ED77
:0103240022B6
:040325008A1F8B2080
:10032900120427AA21EAD3940040297F10120398C6
:10033900AC1FAD20CFCDCFCECCCE120296EF540F4D
:10034900FEC3940AEE5004243080022437FF1204BD
:04035900001A80D135
:01035D00227D
:04035E008A248B253D
:10036200120427AA26EAD394004028EA24FFFDE4D7
:1003720034FFFC7F027E001203A2AC24AD25CFCD58
:10038200CFCECCCE120296EF54012430FF120400DD
:030392001A80D2FC
:010395002245
:10000300E4F5087590FFC2932097137F14FE120442
:100013003D3097FD7F147E0012043D750801209644
:10002300147F147E0012043D3096FD7F147E00126F
:10003300043D7508052095147F147E0012043D309D
:1000430095FD7F147E0012043D7508092094147FEA
:10005300147E0012043D3094FD7F147E0012043D93
:1000630075080D7590FFC2922097147F147E0012BD
:10007300043D3097FD7F147E0012043D7508022075
:1000830096147F147E0012043D3096FD7F147E008B
:1000930012043D7508062095147F147E0012043D5A
:1000A3003095FD7F147E0012043D75080A209414D8
:1000B3007F147E0012043D3094FD7F147E001204F1
:1000C3003D75080E7590FFC2912097147F147E0032
:1000D30012043D3097FD7F147E0012043D75080322
:1000E3002096147F147E0012043D3096FD7F147E0B
:1000F3000012043D7508072095147F147E00120436
:100103003D3095FD7F147E0012043D75080B20944D
:10011300147F147E0012043D3094FD7F147E001280
:10012300043D75080F7590FFC2902097147F147ECD
:100133000012043D3097FD7F147E0012043D7508C4
:10014300042096147F147E0012043D3096FD7F1424
:100153007E0012043D7508082095147F147E00125A
:10016300043D3095FD7F147E0012043D75080C207C
:1001730094147F147E0012043D3094FD7F147E009E
:0801830012043D750810AF08DD
:01018B002251
:0300000002048572
:0C048500787FE4F6D8FD75812602018C1A
:10025700BB010CE58229F582E5833AF583E022505C
:1002670006E92582F8E622BBFE06E92582F8E222A6
:0D027700E58229F582E5833AF583E49322C0
:10028400EF8DF0A4A8F0CF8CF0A428CE8DF0A42E8E
:02029400FE2248
:10029600BC000BBE0029EF8DF084FFADF022E4CC4C
:1002A600F875F008EF2FFFEE33FEEC33FCEE9DEC15
:1002B600984005FCEE9DFE0FD5F0E9E4CEFD22ED5B
:1002C600F8F5F0EE8420D21CFEADF075F008EF2FA5
:1002D600FFED33FD4007985006D5F0F222C398FD96
:0502E6000FD5F0EA2233
:00000001FF
