:0603230048456C6C6F0000
:0403290002130000BB
:100123001202EC7B417D017F011203197BFF7A03ED
:1001330079237D037F01120263750C027BBE7AFF74
:100143007D0D7F01120185750C027BA87A007D016C
:100153007F021201BF750C087BAA7A007D047F021F
:100163001201F80514E514700205137FE87E0312EB
:1001730002D7750C03AB14AA137D097F011202A4E5
:0201830080E119
:06030000C2A58F80D2A708
:080306007F027EEFDEFEDFFC4A
:01030E0022CC
:0A030F00C2A6120300C2A7020306F3
:10028600CFCDCFCECCCE1200427C007D0A120042EA
:04029600ED2430FF24
:0A029A00D2A6120300C2A702030659
:1002C100AE07BE0104ED148006BE0209ED243F44D1
:0602D10080FF12030F2262
:1002EC007F3812030F7F0C12030F7F0612030F7F50
:0402FC000102030FE9
:0A031900AC031202C1AF0402029A05
:060263008B088A09890ADC
:100269001202C1E4FDAB08AA09A90A8D82758300AF
:0C027900120003FF600612029A0D80E9DB
:010285002256
:0C0230007F0AEA24FFFDE434FFFC7E009E
:08023C008E0F8F108C118D1242
:100244007F017E00E4FBEBC39512E5116480F87432
:0E0254008098500AAC0FAD101200300B80E8FD
:010262002279
:0402A4008A0A8B0B2C
:1002A8001202C1AA0CEAD39400400D120230AC0A23
:0802B800AD0B1202861A80ED65
:0102C000221B
:100185001202C1C3EA64809480400B7F2B12029A4D
:100195008A0D8B0E800E7F2D12029AC3E49BF50EFD
:1001A500E49AF50DAA0CEAD39400400D120230AC86
:0901B5000DAD0E1202861A80ED58
:0101BE00221E
:0401BF008A0A8B0B12
:1001C3001202C1AA0CEAD3940040297F1012023212
:1001D300AC0AAD0BCFCDCFCECCCE120042EF540F35
:1001E300FEC3940AEE5004243080022437FF120227
:0401F3009A1A80D103
:0101F70022E5
:0401F8008A0A8B0BD9
:1001FC001202C1AA0CEAD394004028EA24FFFDE4C1
:10020C0034FFFC7F027E0012023CAC0AAD0BCFCD5A
:10021C00CFCECCCE120042EF54012430FF12029A02
:03022C001A80D263
:01022F0022AC
:1002D700EF4E6010007D027CC7DCFEDDFCEF1F7077
:0402E700EF1E80EC9A
:0102EB0022F0
:0300000002009764
:0C009700787FE4F6D8FD7581140200DECD
:10000300BB010CE58229F582E5833AF583E02250B2
:1000130006E92582F8E622BBFE06E92582F8E222FC
:0D002300E58229F582E5833AF583E4932216
:10003000EF8DF0A4A8F0CF8CF0A428CE8DF0A42EE4
:02004000FE229E
:10004200BC000BBE0029EF8DF084FFADF022E4CCA2
:10005200F875F008EF2FFFEE33FEEC33FCEE9DEC6B
:10006200984005FCEE9DFE0FD5F0E9E4CEFD22EDB1
:10007200F8F5F0EE8420D21CFEADF075F008EF2FFB
:10008200FFED33FD4007985006D5F0F222C398FDEC
:050092000FD5F0EA2289
:1000A300020123E493A3F8E493A34003F68001F24F
:1000B30008DFF48029E493A3F85407240CC8C3335E
:1000C300C4540F4420C8834004F456800146F6DF2D
:1000D300E4800B0102040810204080900329E47E91
:1000E300019360BCA3FF543F30E509541FFEE49322
:1000F300A360010ECF54C025E060A840B8E493A3E9
:10010300FAE493A3F8E493A3C8C582C8CAC583CA13
:10011300F0A3C8C582C8CAC583CADFE9DEE780BECB
:01032D0000CF
:00000001FF
